S01100007472616666696320302E73726563E4
S11300000C942A000C9497030C943C000C943C0030
S11300100C943C000C943C000C943C000C943C006C
S11300200C943C000C943C000C943C000C943C005C
S11300300C943C000C943C000C943C000C943C004C
S11300400C943C000C943C000C943C000C943C003C
S11300500C943C0011241FBECFE5D8E0DEBFCDBF19
S113006020E0A0E6B0E001C01D92A936B207E1F796
S11300700E9429020C947A060C940000CF93C0E0ED
S113008005C0CF5F89E190E00E94190262E083E03D
S11300900E94F3018130A9F380916800813061F0FE
S11300A080916400813041F08091620081508230FF
S11300B0C8F0C93090F016C0809165008111F4CF6A
S11300C080916200C93070F48150823058F00E94EF
S11300D0240282E08093620005C00E94240281E031
S11300E080936200CF9108950E94210262E083E030
S11300F00E94E00160E080E00E94F60161E080E09F
S11301000E94F60162E080E00E94F60160E081E076
S11301100E94F60161E081E00E94F60162E081E064
S11301200E94F6010895CF9344C18EE390E00E94AB
S1130130920380916200813009F449C020F082303A
S113014009F4A6C036C160E080E00E94FF0181E0AE
S11301508093640087EA92E10E94190260E080E0E3
S11301600E9408021092650080916200811121C1F1
S113017061E00E94FF0181E080936800CAE0809101
S11301806200811107C061E00E9411028EED91E0CE
S11301900E941902C15099F761E080E00E940802B0
S11301A01092680080916200811103C162E00E9494
S11301B0FF0181E08093650087EA92E10E941902C1
S11301C062E080E00E94080210926500F2C062E0E2
S11301D080E00E94FF0160E081E00E94FF0181E075
S11301E08093650087EA92E10E94190262E080E050
S11301F00E9408021092650080916200813009F02B
S113020044C061E080E00E94FF0161E081E00E945F
S1130210FF0181E080936800CAE061E080E00E9411
S1130220110261E081E00E9411028EED91E00E94D2
S11302301902C15091F761E080E00E94080261E078
S113024081E00E94080260E081E00E9408021092AE
S11302506800809162008130C1F460E080E00E9417
S1130260FF0181E08093640062E00E94FF0187EA5D
S113027092E10E94190260E080E00E94080210925C
S1130280640062E081E00E9408021092620091C062
S113029062E081E00E94FF0161E080E00E94FF01D2
S11302A061E081E00E94FF0181E080936800CAE080
S11302B061E080E00E94110261E081E00E9411028D
S11302C08EED91E00E941902C15091F762E081E045
S11302D00E94080261E080E00E94080261E081E07F
S11302E00E9408021092680080916200823009F036
S11302F05EC062E080E00E94FF0160E081E00E9455
S1130300FF0181E08093650087EA92E10E9419026F
S113031062E080E00E940802109265008091620011
S1130320823009F044C061E080E00E94FF0161E096
S113033081E00E94FF0181E080936800CAE061E0EF
S113034080E00E94110261E081E00E9411028EEDC2
S113035091E00E941902C15091F761E080E00E948F
S1130360080261E081E00E94080260E081E00E94EE
S1130370080210926800809162008230C1F460E04B
S113038080E00E94FF0181E08093640062E00E94AB
S1130390FF0187EA92E10E94190260E080E00E9476
S11303A008021092640062E081E00E940802109248
S11303B0620080916300882309F4B7CECF91089539
S11303C0CF93DF93C82FD62F0E94840340E06D2F74
S11303D08C2F0E942E0291E0813009F090E0892F49
S11303E0DF91CF9108950E941C03089541E00E947B
S11303F02E0291E0813009F090E0892F089541E0C8
S11304000E94A50291E0813009F090E0892F0895BF
S113041040E00E94A50291E0813009F090E0892F2C
S113042008950E944A0391E0813009F090E0892FF9
S113043008950E94C70391E0813009F090E0892F6C
S113044008950E94C00308951092670010926600F8
S113045008950E9474000E949300FDCF813011F131
S113046030F08230D1F1833009F452C06CC04111B4
S11304700DC02AB381E090E002C0880F991F6A95ED
S1130480E2F7809582238ABB80E008952AB381E055
S113049090E002C0880F991F6A95E2F7822B8ABB0D
S11304A080E0089541110DC027B381E090E002C0BF
S11304B0880F991F6A95E2F78095822387BB80E0B5
S11304C0089527B381E090E002C0880F991F6A95D0
S11304D0E2F7822B87BB80E0089541110DC024B35D
S11304E081E090E002C0880F991F6A95E2F7809539
S11304F0822384BB80E0089524B381E090E002C0AD
S1130500880F991F6A95E2F7822B84BB80E00895D7
S113051041110DC021B381E090E002C0880F991F02
S11305206A95E2F78095822381BB80E0089521B328
S113053081E090E002C0880F991F6A95E2F7822B50
S113054081BB80E0089581E00895813011F130F09D
S11305508230D1F1833009F452C06CC041110DC016
S11305602BB381E090E002C0880F991F6A95E2F7EF
S1130570809582238BBB80E008952BB381E090E0CB
S113058002C0880F991F6A95E2F7822B8BBB80E02B
S1130590089541110DC028B381E090E002C0880F96
S11305A0991F6A95E2F78095822388BB80E00895BD
S11305B028B381E090E002C0880F991F6A95E2F7A2
S11305C0822B88BB80E0089541110DC025B381E0E2
S11305D090E002C0880F991F6A95E2F78095822304
S11305E085BB80E0089525B381E090E002C0880FC8
S11305F0991F6A95E2F7822B85BB80E0089541112B
S11306000DC022B381E090E002C0880F991F6A9563
S1130610E2F78095822382BB80E0089522B381E0D3
S113062090E002C0880F991F6A95E2F7822B82BB83
S113063080E0089581E00895813079F028F08230D7
S1130640A9F08330E1F024C089B390E002C095950D
S113065087956A95E2F78170089586B390E002C0A9
S1130660959587956A95E2F78170089583B390E034
S113067002C0959587956A95E2F78170089580B3D5
S113068090E002C0959587956A95E2F78170089588
S113069080E00895813091F028F08230D9F08330E1
S11306A029F130C02BB381E090E002C0880F991F7C
S11306B06A95E2F782278BBB80E0089528B381E036
S11306C090E002C0880F991F6A95E2F7822788BBE1
S11306D080E0089525B381E090E002C0880F991F5F
S11306E06A95E2F7822785BB80E0089522B381E012
S11306F090E002C0880F991F6A95E2F7822782BBB7
S113070080E0089581E00895789485B7816085BF7D
S113071085B7826085BF8AB780648ABF8BB78064DF
S11307208BBF0895909361008093600008951F9299
S11307300F920FB60F9211242F933F934F935F9311
S11307406F937F938F939F93AF93BF93EF93FF9395
S1130750E0916000F0916100309709F00995FF91F4
S1130760EF91BF91AF919F918F917F916F915F9125
S11307704F913F912F910F900FBE0F901F9018959E
S113078083B78F7B83BF83B7877F83BF08958F929F
S11307909F92AF92BF92CF92DF92EF92FF928134F9
S11307A0910541F481E090E09093670080936600A6
S11307B060E057C0BC0180E090E00E9487056B01B7
S11307C07C012FE632E143E852E40E94E1048823ED
S11307D0BCF4A70196016FE672E183E892E40E94FB
S11307E05D042FE632E143E85EE30E94E6040E94E2
S11307F0580581E090E0909367008093660031C0D3
S11308002FE632E143E852E4C701B6010E94E60450
S11308100E94CA040E9458054B015C017093670052
S1130820609366002FE632E143E85EE3C701B60158
S11308300E94E6046B017C01B40180E090E00E9418
S113084087059B01AC01C701B6010E94E6049B0128
S1130850AC0160E070E080E893E40E945D040E94D3
S1130860580562BF83B7846083BF8091660090910E
S11308706700892BC1F040E050E0BA0108B600FEE1
S1130880FDCF88B7816088BF4F5F5F4F6F4F7F4F49
S11308908091660090916700A0E0B0E04817590786
S11308A06A077B0758F380E0FF90EF90DF90CF90CA
S11308B0BF90AF909F908F9008955058BB27AA2760
S11308C00E9475040C9428060E941A0638F00E94AF
S11308D0210620F039F49F3F19F426F40C941706EE
S11308E00EF4E095E7FB0C94E805E92F0E94390625
S11308F058F3BA17620773078407950720F079F451
S1130900A6F50C9473060EF4E0950B2EBA2FA02DC9
S11309100B01B90190010C01CA01A0011124FF27A8
S1130920591B99F0593F50F4503E68F11A16F040A3
S1130930A22F232F342F4427585FF3CF46953795A2
S11309402795A795F0405395C9F77EF41F16BA0B67
S1130950620B730B840BBAF09150A1F0FF0FBB1F15
S1130960661F771F881FC2F70EC0BA0F621F731F5E
S1130970841F48F4879577956795B795F7959E3FBB
S113098008F0B0CF9395880F08F09927EE0F97954C
S1130990879508950E945B0690F09F3748F4911163
S11309A016F40C94740660E070E080E89FE3089508
S11309B026F01B16611D711D811D0C94EE050C940F
S11309C009060E94C40508F481E008950E94FA040F
S11309D00C9428060E94210658F00E941A0640F042
S11309E029F45F3F29F00C94E80551110C94740626
S11309F00C9417060E94390668F39923B1F3552322
S1130A0091F3951B550BBB27AA276217730784071D
S1130A1038F09F5F5F4F220F331F441FAA1FA9F3B3
S1130A2035D00E2E3AF0E0E832D091505040E695A1
S1130A30001CCAF72BD0FE2F29D0660F771F881F02
S1130A40BB1F261737074807AB07B0E809F0BB0BF5
S1130A50802DBF01FF2793585F4F3AF09E3F510509
S1130A6078F00C94E8050C9474065F3FE4F3983E28
S1130A70D4F3869577956795B795F7959F5FC9F7F2
S1130A80880F911D9695879597F90895E1E0660F73
S1130A90771F881FBB1F621773078407BA0720F0EC
S1130AA0621B730B840BBA0BEE1F88F7E095089555
S1130AB00E94410688F09F5798F0B92F9927B751A3
S1130AC0B0F0E1F0660F771F881F991F1AF0BA95EE
S1130AD0C9F714C0B13091F00E947306B1E00895D3
S1130AE00C947306672F782F8827B85F39F0B93FC5
S1130AF0CCF3869577956795B395D9F73EF49095A1
S1130B008095709561957F4F8F4F9F4F0895E8941E
S1130B1009C097FB3EF490958095709561957F4F41
S1130B208F4F9F4F9923A9F0F92F96E9BB279395EF
S1130B30F695879577956795B795F111F8CFFAF4FF
S1130B40BB0F11F460FF1BC06F5F7F4F8F4F9F4F30
S1130B5016C0882311F096E911C0772321F09EE88E
S1130B60872F762F05C0662371F096E8862F70E0F4
S1130B7060E02AF09A95660F771F881FDAF7880FCE
S1130B809695879597F90895990F0008550FAA0B24
S1130B90E0E8FEEF16161706E807F907C0F012168C
S1130BA01306E407F50798F0621B730B840B950B8F
S1130BB039F40A2661F0232B242B252B21F40895E4
S1130BC00A2609F4A140A6958FEF811D811D089581
S1130BD097F99F6780E870E060E00895882371F4D6
S1130BE0772321F09850872B762F07C0662311F4C2
S1130BF099270DC09051862B70E060E02AF09A95F9
S1130C00660F771F881FDAF7880F9695879597F9EF
S1130C1008959F3F31F0915020F48795779567951B
S1130C20B795880F911D9695879597F908959FEF2D
S1130C3080EC089500240A9416161706180609066F
S1130C40089500240A94121613061406050608953E
S1130C50092E0394000C11F4882352F0BB0F40F4C6
S1130C60BF2B11F460FF04C06F5F7F4F8F4F9F4F06
S1130C70089557FD9058440F551F59F05F3F71F088
S1130C804795880F97FB991F61F09F3F79F08795EF
S1130C900895121613061406551FF2CF4695F1DF78
S1130CA008C0161617061806991FF1CF8695710508
S1130CB06105089408950E944106A0F0BEE7B917A3
S1130CC088F4BB279F3860F41616B11D672F782F60
S1130CD08827985FF7CF869577956795B11D93958B
S1130CE09639C8F30895E894BB2766277727CB0184
S10B0CF097F90895F894FFCF71
S9030000FC
